:020000040800F2
:100000000050002021020008270200082B020008EF
:100010009D020008A1020008E9020008000000009B
:100020000000000000000000000000003103000894
:10003000350300080000000039030008C90E00085D
:100040004D0300084D0300084D0300084D03000850
:100050004D0300084D0300084D0300084D03000840
:100060004D0300084D0300084D0300084D03000830
:100070004D0300084D0300084D0300084D03000820
:100080004D0300084D0300084D0300084D03000810
:100090004D0300084D0300084D0300084D03000800
:1000A0004D0300084D0300084D0300084D030008F0
:1000B0004D0300084D0300084D0300084D030008E0
:1000C0004D0300084D0300084D0300084D030008D0
:1000D0004D030008C10D00084D0300084D03000842
:1000E0004D0300084D0300084D0300080000000008
:1000F0000000000000000000000000000000000000
:1001000000000000000000005FF808F100B583B0B7
:1001100000F0AAF9304B314A1360314A1360314B79
:10012000314A03E011681960043304322F498B42CD
:10013000F8D32A4B1A682E4B9A4204D1284B1A68DE
:100140002C4B9A4200D0FEE7234B2B4A13602B4ADC
:1001500013602B4B02E000221A600433294A9342B9
:10016000F9D3254B1B6813B9244B1B6803B1FEE779
:1001700000F086F9694601A800F022F9224C234BD1
:100180001C1BA410002504E01F4B53F82530984792
:100190000135AC42F8DC1E4C1E4B1C1BA410002584
:1001A00004E01B4B53F8253098470135AC42F8DC8E
:1001B0000099019800F074FB0546174C174B1C1B67
:1001C000A41004E0013C144B53F824309847002C51
:1001D000F8DC284600F0D0F8BABADECA00000020E9
:1001E00058010020000000206C1A00085C0100206B
:1001F00078563412325476985C0100208C0300202B
:100200005C010020900300207803000878030008B8
:1002100078030008780300087803000878030008D2
:1002200008B5FFF773FF00BEFEE71EF0040F0CBF1A
:10023000EFF30880EFF309807146414A10472DE93A
:10024000F04182B004468846124B5E6B9F6B9D6AFC
:100250001B6B13F0020F03D00E4BDB6A002B0CDB81
:100260000D4800F0B5F8CDF800803B4632462946EF
:10027000204600F009F900BEFEE74BF6AB6100F046
:100280007DF90028ECD0034B4FF00042DA6202B057
:10029000BDE8F08100ED00E08419000800BEFEE733
:1002A0001EF0040F0CBFEFF30880EFF309807146D6
:1002B000244A10472DE9F04182B004468846084B95
:1002C0005E6B9F6B9D6A074800F082F8CDF8008056
:1002D0003B4632462946204600F0D6F800BEFEE7EF
:1002E00000ED00E0941900081EF0040F0CBFEFF3BE
:1002F0000880EFF309807146134A10472DE9F04159
:1003000082B004468846084B5E6B9F6B9D6A074827
:1003100000F05EF8CDF800803B4632462946204684
:1003200000F0B2F800BEFEE700ED00E0A019000802
:1003300000BEFEE700BEFEE700BEFEE7704700001D
:100340003F020008B5020008FD02000800BEFEE7FB
:100350006C1A0008000000205C0100206C1A0008E4
:1003600000000000000000005C010020900300205D
:08037000000000000000000085
:10037800FEE700BF08B50D4B1B6813B90C4A0B4BC1
:100388001A600A4B1A68C31C23F003031344094973
:100398008B4206D900F034FE0C2303604FF0FF3087
:1003A80008BD02490B60104608BD00BF600100206F
:1003B80090030020004C002001230360014B0B60D8
:1003C800704700BF040000200FB400B583B004AB31
:1003D80053F8042B01938021064800F043FE0028BF
:1003E80003DD0146034800F037F803B05DF804EB7D
:1003F80004B07047680100202DE9F04385B0044639
:100408000F4643560BB10E461EE0042528462146EA
:10041800ABBE0446384605B0BDE8F08314F9011BAD
:1004280004AA1A4402F8101C0133AB42F6D304AAFA
:100438001344002203F8102C4FF00408E946404604
:100448004946ABBE8046761B002EE3D03546102EBB
:1004580028BF10250023E8E708B5FFF7CDFF08BD42
:1004680008B500F0FDF8024A024B9A6008BD00BFCB
:100478000000000800ED00E008B500F019F908BD1B
:10048800F8B504460D4617461E462748FFF79CFF59
:1004980021682648FFF798FF61682548FFF794FF11
:1004A800A1682448FFF790FFE1682348FFF78CFF15
:1004B80021692248FFF788FF61692148FFF784FF17
:1004C800A1692048FFF780FFE1691F48FFF77CFF1B
:1004D8001E48FFF779FF29461D48FFF775FF1D4C99
:1004E800E16A1D48FFF770FF216B1C48FFF76CFF9E
:1004F800E16B1B48FFF768FF15F0800F0AD115F470
:10050800004F0CD11748FFF75FFF06991648FFF711
:100518005BFFF8BD39461548FFF756FFEFE7314650
:100528001348FFF751FFEDE768180008781800082E
:100538008818000898180008A8180008B8180008B3
:10054800C8180008D8180008E8180008F8180008A3
:100558000419000800ED00E0141900082419000827
:1005680034190008641900086C19000844190008B7
:100578005419000883691A888A4201D000207047FC
:100588000268033A012A03D80233836101207047C5
:100598000020704782B00023019300932C4A13680F
:1005A80043F4803313602A4B1B6803F40033009331
:1005B800019B01330193009B1BB9019BB3F5A06F0D
:1005C800F1D1234B1B6813F4003F06D0012300939D
:1005D800009B012B04D002B0704700230093F7E77B
:1005E8001C4B1A6842F010021A601A6822F00302C3
:1005F8001A601A6842F002021A60A3F580535A681A
:100608005A605A685A605A6842F480625A605A6856
:1006180022F47C125A605A6842F4E8125A601A6846
:1006280042F080721A600A4B1B6813F0007FFAD000
:10063800074B5A6822F003025A605A6842F00202D5
:100648005A60034B5B6803F00C03082BF9D1C2E72F
:10065800001002400020024008B5FFF79BFF08BDCC
:1006680008B5104B1A6842F001021A6059680E4A20
:100678000A405A601A6822F0847222F480321A60A2
:100688001A6822F480221A605A6822F4FE025A601C
:100698004FF41F029A60FFF7DFFF044B4FF0006230
:1006A8009A6008BD001002400000FFF800ED00E06D
:1006B8001F4B5B6803F00C03042B15D0082B17D0D5
:1006C8001BB11C4B1C4A1A6002E01A4B1A4A1A60EA
:1006D800174B5B68C3F30313184AD35CDAB21549A6
:1006E8000B68D3400B607047124B134A1A60EFE750
:1006F8000F4A53685268C3F38343023312F4803FAE
:100708000AD00B4A526812F4003F0BD00C4A02FB85
:1007180003F3084A1360DBE7094A02FB03F3054ABF
:100728001360D5E7044A02FB03F3024A1360CFE7DC
:10073800001002401C00002000127A000C0000206B
:1007480000093D00004870472000002070B50024D3
:1007580007E0114B03EB05135A68013A5A6001345C
:10076800E4B2022C16D825460B4B03EB04131B7B73
:10077800012BF4D1084B03EB04135B68002BE8D181
:10078800054A2301D618D3581B681B689847B368D5
:100798007360DEE770BD00BFEC010020014B012251
:1007A8001A707047E801002038B50024104B1C70FF
:1007B800FFF7C8FF054600F055FB022000F062FB7A
:1007C8000C4800F073FB23460FE005EBC3040A480E
:1007D80019014218445055F833004168490891609E
:1007E80061685160017A11730133022BEDD938BD6C
:1007F800E8010020A5070008EC01002008B500F07A
:1008080039FB054B1B78002BFBD0034B00221A70D9
:10081800FFF79CFFF5E700BFE801002010B50E4C7C
:100828002146002000F082FA2378012B04D00A4BDD
:100838001A780A4B1A7010BD084B1B78002BF6D19A
:10084800074C2168013121600648FFF7BDFD226889
:10085800054B1A60EBE700BF1C0200201D020020B8
:1008680020020020BC1900085003002008B504210C
:10087800022000F09BFB0821022000F097FB4FF4B8
:100888008041022000F092FB002000F02DFA00F0D9
:10089800CFF900F053FA08BD08B5FFF7E7FFFFF7F7
:1008A80083FFFFF7ABFF08BD38B5234C2246042170
:1008B800224800F075FB247874B9214B1A78214B33
:1008C8001B789A420ED100231F4A13701D4A1370D9
:1008D8001E4B1B68984738BD00220421174800F0BA
:1008E80053FBF8E7154D01221146284600F04CFB52
:1008F80000220221284600F047FB072C11D8114B93
:100908001B78134AD25C224102F00102114B53F8C2
:100918002410114B53F8240000F036FB0134E4B2E4
:10092800EBE701220421054800F02EFB054A137865
:1009380001331370CFE700BF2502002000080140F3
:100948002E0200202D02002028020020580300203B
:1009580030020020D4190008F419000838B51B4CDF
:10096800224604211A4800F01BFB24785CB9184D74
:1009780000220121284600F007FB00220221284618
:1009880000F002FB19E000220421114800F0FCFAF3
:10099800104B00221A70104B1B68984714E0012274
:1009A800224102F001020D4B53F824100C4B53F86E
:1009B800240000F0E9FA0134E4B2072CEFD901224F
:1009C8000421034800F0E0FA38BD00BF26020020E9
:1009D80000080140280200205C030020D419000808
:1009E800F419000870B51E4B1D781E4B1B781D446A
:1009F8001D4C224604211D4800F0D2FA247864B91F
:100A0800EDB21A4E00220121304600F0BDFA002254
:100A18000221304600F0B8FA19E0002204211348F8
:100A280000F0B2FA124B00221A70124B1B6898475A
:100A380014E045FA04F202F001020F4B53F82410B7
:100A48000E4B53F8240000F09FFA0134E4B2072C4F
:100A5800EFD901220421054800F096FA70BD00BFC5
:100A68002B0200202A020020270200200008014053
:100A78002802002060030020D4190008F419000897
:100A880038B5564B1B78132B40F2A280544B1B7879
:100A9800022B37D0032B68D0012B40F09C80514C9F
:100AA80022460421504800F07BFA24785CB94E4D68
:100AB80000220121284600F067FA00220221284678
:100AC80000F062FA16E000220421474800F05CFAC0
:100AD800434B02221A707EE03822224102F00102C2
:100AE800424B53F82410424B53F8240000F04CFAC0
:100AF8000134E4B2072CEFD9012204213A4800F06E
:100B080043FA68E0374C22460421374800F048FA97
:100B180024785CB9344D00220121284600F034FACB
:100B280000220221284600F02FFA16E000220421B4
:100B38002D4800F029FA2A4B03221A704BE00C22A8
:100B4800224102F00102294B53F82410284B53F894
:100B5800240000F019FA0134E4B2072CEFD901227D
:100B68000421214800F010FA35E01E4C22460421E9
:100B78001D4800F015FA24785CB91B4D00220121AC
:100B8800284600F001FA00220221284600F0FCF96C
:100B980016E000220421144800F0F6F9154B012252
:100BA8001A7018E00122224102F001020F4B53F89B
:100BB80024100F4B53F8240000F0E6F90134E4B296
:100BC800072CEFD901220421074800F0DDF902E0E3
:100BD8000133024A1370002038BD00BF2C020020E8
:100BE800E80000202402002000080140D419000871
:100BF800F41900082902002008B50B4B1B7883B1B3
:100C08000A4B1B78022B06D0032B07D0012B0AD1E5
:100C1800FFF74AFE07E0FFF7A1FE04E0FFF7E2FE58
:100C280001E0FFF72DFF08BD29020020280200205F
:100C380038B50024254608E0064800EB041000F00B
:100C48005FF90543EDB20134E4B20A2CF4D9284621
:100C580038BD00BF3800002000EB40008300014889
:100C680018447047201A000838B5002404B138BD6C
:100C78002046FFF7F1FF174D2860174A01684068C2
:100C880000F08EF92B689B68012B12D02346134A7B
:100C9800115D114A1278914211D01149002008556E
:100CA8000F49C95C05290FD00C49CA540134E4B274
:100CB800DCE7094A137883F001031370E6E7084874
:100CC800015D01310155EBE70649CA54044900208A
:100CD800C854E9E7680300203103002034030020EA
:100CE800300300206403002010B584B0FFF7B4FF80
:100CF8000446036800934368039300230193082381
:100D08000293684600F0FCF8A368012B04D0022B7C
:100D180007D0012004B010BD0121684600F026F973
:100D2800F7E70021684600F021F9F2E7024B1B5C67
:100D38000B700120704700BF6403002010B588B015
:100D48001B4C2268D36843F40053D3604FF40073FC
:100D580004930323059308220692164B07934FF436
:100D680080610091002101910292039304A800F090
:100D7800C7F8684600F0C4F82368DA6842F480527D
:100D8800DA601A6922F400521A611A691A6141F686
:100D98004C529A60252000F09BF82368DA6842F0EC
:100DA8000C02DA60DA6842F06002DA6008B010BD5E
:100DB800EC0000200008014008B5254B1B681A68A4
:100DC80012F0400F14D0234A12688AB11A6822F030
:100DD80040021A601F4B5A689B689A4217D11D4BF4
:100DE80000221A609A605A601A731B4B1B68984756
:100DF800174B1B681A6812F0200F07D01A6822F0E8
:100E080020021A60154B1B7B012B0AD008BD114B21
:100E180018680F490968825C4A605A6801325A604A
:100E2800E6E70B4B1B6858680C4B19685A688854DE
:100E38005A6801325A609B689A42E7D1074B0022F0
:100E48001A609A605A601A73054B1B689847DDE769
:100E5800EC0000207C0300203C0300206C030020F1
:100E680038030020024A136843F0020313607047F6
:100E780010E000E0024A136843F001031360704772
:100E880010E000E0064B03FB00F0064BA3FB002339
:100E98009B09013B044A536000239360704700BFDD
:100EA80040548900D34D621010E000E018B1034AA5
:100EB8001060012070470020704700BF40030020E9
:100EC80008B5024B1B6803B1984708BD40030020D2
:100ED800EF280FD810B4094B1968420900F01F0316
:100EE800012000FA03F3403251F82240234341F82D
:100EF800223001E00020704710BC7047F00000204D
:100F080070B4C468002312E001229A4001688A4341
:100F18000CD121689E000F25B54021EA05054168DE
:100F28008268114301FA06F22A4322600133072B33
:100F3800EAD9082314E001229A4001688A430ED1B5
:100F4800A3F10802616895000F22AA4021EA02066F
:100F580041688268114301FA05F232436260013345
:100F68000F2BE8D9012070BC704700BFC368012966
:100F780003D102681A610120704719B902685A61E1
:100F88000120704700207047012A02D10161012029
:100F9800704712B94161012070470020704700BFB7
:100FA8008368194011700120704700BF01280DD0D7
:100FB80018B1022813D000207047104B5A690A4311
:100FC8005A615B690B4215D1002070470B4BDA69F7
:100FD8000A43DA61DB690B420ED100207047074BE8
:100FE8009A690A439A619B690B4201D001207047B4
:100FF8000020704701207047012070470010024010
:10100800014B1868704700BFF400002030B5141E6B
:1010180005469BB0184605DA8B234FF0FF302B604E
:101028001BB030BD4FF40273ADF80C300CBF234633
:1010380004F1FF33029305934FF6FF730091049177
:10104800ADF80E3002461E9B6946284600F072F83D
:10105800431CBCBF8B232B60002CE1D00022009BDB
:101068001A70DDE707B5009313460A4601460348A0
:101078000068FFF7CBFF03B05DF804FBF400002025
:101088002DE9F0478E6882469E420C469046994666
:1010980037D88A8912F4906F31D0022325680969FC
:1010A8006F1A656905EB450595FBF3F509F1010331
:1010B8003B449D4238BF1D46530530D5294600F0B4
:1010C80035FB064650B90C234FF0FF30CAF8003004
:1010D800A38943F04003A381BDE8F0873A4621691C
:1010E80000F0B4FAA38923F4906343F08003A3814A
:1010F80026613E4426604E466561ED1BA5604E455F
:1011080000D94E4632464146206800F0AAFAA36844
:1011180000209B1BA36023681E442660DCE72A4648
:1011280000F05EFB06460028E2D12169504600F037
:10113800B1FAC8E72DE9F04F9DB003938B8980463B
:101148001D060C4616460FD50B696BB9402100F0F9
:10115800EDFA2060206128B90C23C8F800304FF060
:10116800FF30C7E0402363610023099320238DF8F3
:10117800293030234FF0010B8DF82A3037463D4691
:1011880015F8013B0BB1252B3ED1B7EB060A0BD066
:101198005346324621464046FFF772FF013000F0C1
:1011A800A480099B534409933B78002B00F09D8051
:1011B80000234FF0FF32CDE90523049307938DF800
:1011C80053301A932F46052217F8011B4F4800F099
:1011D8002FFA049BD0B9D90644BF20228DF853209A
:1011E8001A0744BF2B228DF853202A782A2A15D0B3
:1011F8002F4600200A25079A394611F8013B303B53
:10120800092B4DD9B8B10FE02F46B8E73F4A3D4604
:10121800801A0BFA00F018430490D3E7039A111DC3
:1012280012680391002A01DB079204E0524243F05E
:101238000203079204933B782E2B0CD17B782A2B40
:1012480033D1039B02371A1D1B680392002BB8BFCA
:101258004FF0FF3305932E4D03223978284600F0CE
:10126800E7F938B14023401B03FA00F0049B01372B
:10127800034304933978062226487E1C8DF82810EB
:1012880000F0D6F9002838D0234B13BB039B073353
:1012980023F0070308330393099B4B4409936DE735
:1012A80005FB023201200F46A6E700230A2519464E
:1012B80001370593384610F8012B303A092A03D92B
:1012C800002BC8D00591C6E705FB0121012307467D
:1012D800F0E703AB00932246104B04A94046AFF356
:1012E8000080B0F1FF3F8146D6D1A3895B063FF568
:1012F80036AF09981DB0BDE8F08F03AB00932246C6
:10130800064B04A9404600F081F8EAE7381A0008BD
:101318003E1A0008421A0008000000008910000860
:101328002DE9F04791461F468A680B6906469342A5
:10133800B8BF1346C9F8003091F843200C46DDF8D1
:10134800208012B10133C9F800302368990642BFE2
:10135800D9F800300233C9F80030256815F00605C1
:1013680007D104F1190AE368D9F800209B1AAB42A7
:1013780029DC94F843302268003318BF0123920611
:101388002ED404F1430239463046C047013021D0FB
:101398002368E56803F00603042B18BF0025D9F875
:1013A80000204FF0000908BFAD1AA368226908BFE2
:1013B80025EAE5759342C4BF9B1AED181A344D45CA
:1013C8001AD1002008E00123524639463046C0476A
:1013D800013003D14FF0FF30BDE8F0870135C2E797
:1013E8003020E11881F843005A1C94F84510224433
:1013F800023382F84310C4E70123224639463046B7
:10140800C0470130E6D009F10109D8E72DE9F043DA
:1014180001F1430C0C46097E85B06E291746064635
:1014280098460C9A00F0B38022D8632936D00AD89F
:10143800002900F0B980582900F0838004F14205A2
:1014480084F8421032E0642901D06929F6D1206875
:101458001368050603F104012AD51B681160002BE7
:1014680003DA2D225B4284F843206F480A2239E0D0
:10147800732900F09D8008D86F2920D07029DDD10C
:10148800236843F02003236003E0752917D07829E7
:10149800D4D17823654884F8453055E0136804F1C1
:1014A8004205191D1B68116084F8423001238CE045
:1014B8001B6810F0400F116018BF1BB2CFE713680C
:1014C8002568181D1060280601D51B6802E068060B
:1014D800FBD51B886F2914BF0A2208225248002115
:1014E80084F843106568002DA560C0F295802168D6
:1014F80021F004012160002B3DD1002D40F08E80A9
:101508006546082A0BD12368DB0708D5236962687A
:101518009A42DEBF302305F8013C05F1FF35ACEBFC
:1015280005032361CDF800803B4603AA21463046D7
:10153800FFF7F6FE01304DD14FF0FF3005B0BDE8A2
:10154800F083394884F84510136821681D1D1B680D
:1015580015600A060BD5CA0744BF41F02001216077
:101568001BB9226822F0200222601022B7E74D063C
:1015780048BF9BB2EFE76546B3FBF2F102FB1133BC
:10158800C35C05F8013D0B460029F5D1B9E713689E
:101598002568181D6169106028061B6801D5196047
:1015A80002E06A06FBD51980002365462361B9E786
:1015B8001368191D11601D6862680021284600F033
:1015C80037F808B1401B606063682361002384F822
:1015D8004330A7E723692A4639463046C0470130D9
:1015E800AAD023689B0713D4E068039B9842B8BF2E
:1015F8001846A3E701234A4639463046C04701301A
:101608009AD00135E368039A9B1AAB42F2DCEBE708
:10161800002504F11909F5E7002BACD1037804F192
:10162800420584F842306CE7491A00085A1A000843
:1016380010B5C9B202449042034601D1002303E029
:101648001C7801308C42F6D1184610BD10B5431EE7
:101658000A44914200D110BD11F8014B03F8014F23
:10166800F7E7884210B501EB020307D8421E9942FA
:101678000AD011F8014B02F8014FF8E78342F5D977
:101688008118D21AD34200D110BD13F8014D01F8C8
:10169800014DF7E738B50546002943D051F8043C19
:1016A8000C1F002BB8BFE41800F0D0F81E4A1368CE
:1016B800104633B9636014602846BDE8384000F02E
:1016C800C6B8A3420BD921686218934201BF1A68B1
:1016D8005B685218226063600460EDE713465A683D
:1016E8000AB1A242FAD919685818A0420BD1206849
:1016F8000144581882421960DED1106852680144CA
:1017080019605A60D8E702D90C232B60D4E7206807
:1017180021188A4201BF1168526809182160626065
:101728005C60C9E738BD00BF4403002070B5CD1C1C
:1017380025F0030508350C2D38BF0C25002D06466D
:1017480001DBA94203D90C233360002070BD00F0EF
:101758007DF8214A1468214691B9204C23681BB9A9
:10176800304600F063F820602946304600F05EF805
:10177800431C24D10C233046336000F068F8E4E7BA
:101788000B685B1B18D40B2B0FD90B60CC18CD50F2
:10179800304600F05CF804F10B00231D20F0070030
:1017A800C31AD3D05A42E250D0E74B688C4216BFD6
:1017B800636013600C46EBE70C464968CCE7C41C31
:1017C80024F00304A04205D0211A304600F02EF878
:1017D8000130CFD02560DBE7440300204803002018
:1017E800F8B5074614460E4621B9BDE8F84011463B
:1017F800FFF79CBF22B9FFF74DFF25462846F8BDE5
:1018080000F026F8A0420FD221463846FFF78EFF97
:1018180005460028F2D031462246FFF717FF314629
:101828003846FFF737FFE9E73546E7E738B50023DD
:10183800054C054608462360FEF79CFD431C02D173
:10184800236803B12B6038BD4C03002070477047F4
:1018580051F8043C181F002BBCBF0B58C018704728
:10186800537461636B206672616D653A0A0000000B
:10187800205230203D2020253038580A0000000032
:10188800205231203D2020253038580A0000000021
:10189800205232203D2020253038580A0000000010
:1018A800205233203D2020253038580A00000000FF
:1018B80020523132203D20253038580A00000000DF
:1018C800204C52203D2020253038580A00000000C6
:1018D800205043203D2020253038580A00000000C1
:1018E80020505352203D20253038580A000000006F
:1018F8004653522F4641523A0A00000020434653AD
:1019080052203D2020253038580A000020484653F0
:1019180052203D2020253038580A000020444653E4
:1019280052203D2020253038580A000020414653D7
:1019380052203D2020253038580A0000204D4D46C1
:101948004152203D20253038580A000020424641A7
:1019580052203D2020253038580A00004D69736315
:101968000A000000204C522F4558435F52455455F9
:10197800524E3D20253038580A0000005B486172FD
:10198800644661756C745D0A000000005B42757303
:101998004661756C745D0A005B55736167654661E5
:1019A800756C745D0A00000025080008140000002A
:1019B800010000007377697463685F636F756E7404
:1019C800657220203D2020256420200008000000AA
:1019D800100000002000000040000000800000000F
:1019E800000100000008000000100000000801408D
:1019F80000080140000801400008014000080140BB
:101A0800000801400008014000080140010C0008DE
:101A180002000000010000000080000000080140F2
:101A280001000000710C0008040000000100000023
:101A3800232D302B2000686C4C00656667454647AF
:101A48000030313233343536373839414243444532
:101A580046003031323334353637383961626364A1
:031A6800656600B0
:101A6C0078563412640100200000000000000000D1
:101A7C0000000000010203040607080900A24A0442
:101A8C002C1A000800000000141A000800000000C6
:101A9C00B019000800000000010000000100000067
:101AAC0000000000000801400200000001000000DE
:101ABC0000000000000801400400000001000000CC
:101ACC0000000000000801400800000001000000B8
:101ADC0000000000000801401000000001000000A0
:101AEC000000000000080140200000000100000080
:101AFC000000000000080140400000000100000050
:101B0C0000000000000801408000000001000000FF
:101B1C00000000000008014000010000010000006E
:101B2C000000000000080140000800000100000057
:101B3C00000000000008014000100000010000003F
:101B4C00000000000008014001FFFFFF00380140C9
:101B5C0000E000E0F80000200000000000000000A1
:101B6C000000000000000000000000000000000069
:101B7C000000000000000000000000000000000059
:101B8C000000000000000000000000000000000049
:101B9C000000000000000000000000000000000039
:101BAC000000000000000000000000000000000029
:0C1BBC0000000000000000003254769889
:040000050800010DE1
:00000001FF
