:020000040800F2
:100000000050002021020008270200082B020008EF
:100010009D020008A1020008E9020008000000009B
:100020000000000000000000000000003103000894
:10003000350300080000000039030008750F0008B0
:100040004D0300084D0300084D0300084D03000850
:100050004D0300084D0300084D0300084D03000840
:100060004D0300084D0300084D0300084D03000830
:100070004D0300084D0300084D0300084D03000820
:100080004D0300084D0300084D0300084D03000810
:100090004D0300084D0300084D0300084D03000800
:1000A0004D0300084D0300084D0300084D030008F0
:1000B0004D0300084D0300084D0300084D030008E0
:1000C0004D0300084D0300084D0300084D030008D0
:1000D0004D030008790E00084D0300084D03000889
:1000E0004D0300084D0300084D0300080000000008
:1000F0000000000000000000000000000000000000
:1001000000000000000000005FF808F100B583B0B7
:1001100000F0AAF9304B314A1360314A1360314B79
:10012000314A32498B4204D21168196004330432D7
:10013000F7E72A4B1A682E4B9A4200D0FEE7284B6D
:100140001A682C4B9A42F9D1234B2B4A13602B4A45
:1001500013602B4B02E000221A600433294A9342B9
:10016000F9D3254B1B6813B9244B1B6803B1FEE779
:1001700000F086F9694601A800F022F9224C234BD1
:10018000E41AA4100025AC4214DC214C214BE41AE3
:10019000A4100025AC4213DC0099019800F0AEFBDE
:1001A00005461D4C1D4BE41AA410002C0EDC2846FD
:1001B00000F0E2F8154B53F8253098470135E2E797
:1001C000144B53F8253098470135E3E7013C134BB6
:1001D00053F824309847E8E7BABADECA0000002096
:1001E0007401002000000020541C00087801002049
:1001F000785634123254769878010020A8030020F3
:1002000078010020AC030020780300087803000880
:1002100078030008780300087803000878030008D2
:1002200008B5FFF773FF00BEFEE71EF0040F0CBF1A
:10023000EFF30880EFF309807146414A10472DE93A
:10024000F04182B004468846124B5E6B9F6B9D6AFC
:100250001B6B13F0020F03D00E4BDB6A002B0CDB81
:100260000D4800F0B5F8CDF800803B4632462946EF
:10027000204600F009F900BEFEE74BF6AB6100F046
:100280007DF90028ECD0034B4FF00042DA6202B057
:10029000BDE8F08100ED00E05C1B000800BEFEE759
:1002A0001EF0040F0CBFEFF30880EFF309807146D6
:1002B000244A10472DE9F04182B004468846084B95
:1002C0005E6B9F6B9D6A074800F082F8CDF8008056
:1002D0003B4632462946204600F0D6F800BEFEE7EF
:1002E00000ED00E06C1B00081EF0040F0CBFEFF3E4
:1002F0000880EFF309807146134A10472DE9F04159
:1003000082B004468846084B5E6B9F6B9D6A074827
:1003100000F05EF8CDF800803B4632462946204684
:1003200000F0B2F800BEFEE700ED00E0781B000828
:1003300000BEFEE700BEFEE700BEFEE7704700001D
:100340003F020008B5020008FD02000800BEFEE7FB
:10035000541C00080000002078010020541C0008F4
:10036000000000000000000078010020AC03002025
:08037000000000000000000085
:10037800FEE7000008B503460C4A12685AB10B4A5A
:100388001068033323F003030344094A934206D851
:10039800064A136008BD054A06491160EFE700F0F8
:1003A800C3FE0C2303604FF0FF30F3E77C0100200D
:1003B800004C0020AC03002001230360014B0B60BC
:1003C800704700BF040000200FB400B583B004AB31
:1003D80053F8042B01938021064800F02FFF0028D2
:1003E80003DD0146034800F037F803B05DF804EB7D
:1003F80004B07047840100202DE9F04385B004461D
:100408000F4643560BB10E461EE0042528462146EA
:10041800ABBE0446384605B0BDE8F08314F9011BAD
:1004280004AA1A4402F8101C0133AB42F6D304AAFA
:100438001344002203F8102C4FF00408E946404604
:100448004946ABBE8046761B002EE3D03546102EBB
:1004580028BF10250023E8E708B5FFF7CDFF08BD42
:1004680008B500F0FDF8024A024B9A6008BD00BFCB
:100478000000000800ED00E008B500F019F908BD1B
:10048800F8B504460D4617461E462748FFF79CFF59
:1004980021682648FFF798FF61682548FFF794FF11
:1004A800A1682448FFF790FFE1682348FFF78CFF15
:1004B80021692248FFF788FF61692148FFF784FF17
:1004C800A1692048FFF780FFE1691F48FFF77CFF1B
:1004D8001E48FFF779FF29461D48FFF775FF1D4C99
:1004E800E16A1D48FFF770FF216B1C48FFF76CFF9E
:1004F800E16B1B48FFF768FF15F0800F0AD115F470
:10050800004F0CD11748FFF75FFF06991648FFF711
:100518005BFFF8BD39461548FFF756FFEFE7314650
:100528001348FFF751FFEDE7401A0008501A00087A
:10053800601A0008701A0008801A0008901A00084B
:10054800A01A0008B01A0008C01A0008D01A00083B
:10055800DC1A000800ED00E0EC1A0008FC1A00089C
:100568000C1B00083C1B0008441B00081C1B00084F
:100578002C1B000883691A888A4201D00020704722
:100588000268033A012A03D80233836101207047C5
:100598000020704782B00023019300932C4A13680F
:1005A80043F4803313602A4B1B6803F40033009331
:1005B800019B01330193009B1BB9019BB3F5A06F0D
:1005C800F1D1234B1B6813F4003F06D0012300939D
:1005D800009B012B04D002B0704700230093F7E77B
:1005E8001C4B1A6842F010021A601A6822F00302C3
:1005F8001A601A6842F002021A60A3F580535A681A
:100608005A605A685A605A6842F480625A605A6856
:1006180022F47C125A605A6842F4E8125A601A6846
:1006280042F080721A600A4B1B6813F0007FFAD000
:10063800074B5A6822F003025A605A6842F00202D5
:100648005A60034B5B6803F00C03082BF9D1C2E72F
:10065800001002400020024008B5FFF79BFF08BDCC
:1006680008B5104B1A6842F001021A6059680E4A20
:100678000A405A601A6822F0847222F480321A60A2
:100688001A6822F480221A605A6822F4FE025A601C
:100698004FF41F029A60FFF7DFFF044B4FF0006230
:1006A8009A6008BD001002400000FFF800ED00E06D
:1006B8001F4B5B6803F00C03042B15D0082B17D0D5
:1006C8001BB11C4B1C4A1A6002E01A4B1A4A1A60EA
:1006D800174B5B68C3F30313184AD35CDAB21549A6
:1006E8000B68D3400B607047124B134A1A60EFE750
:1006F8000F4A53685268C3F38343023312F4803FAE
:100708000AD00B4A526812F4003F0BD00C4A02FB85
:1007180003F3084A1360DBE7094A02FB03F3054ABF
:100728001360D5E7044A02FB03F3024A1360CFE7DC
:10073800001002401C00002000127A000C0000206B
:1007480000093D00004870472000002070B50024D3
:1007580007E0114B03EB05135A68013A5A6001345C
:10076800E4B2022C16D825460B4B03EB04131B7B73
:10077800012BF4D1084B03EB04135B68002BE8D181
:10078800054A2301D618D3581B681B689847B368D5
:100798007360DEE770BD00BF08020020014B012234
:1007A8001A7070470402002070B5FFF7CBFF0546AA
:1007B80000F0AEFB052000F0BBFB0D4800F0CCFBC1
:1007C800002312E005EBC3040A481A01811884507B
:1007D80055F833004268084EA6FB026292088A6008
:1007E80062684A60027A0A730133022BEAD970BD43
:1007F800A507000808020020CDCCCCCC08B500F035
:100808008FFB054B1B78002BFBD0034B00221A7083
:10081800FFF79CFFF5E700BF0402002010B5214A4E
:10082800136801331360A3B91E4B1B6813F0010F43
:1008380029D01C4B1A681C4BA3FB02135B0803EB63
:1008480043039A4224D0174B1B6813F0030F24D09C
:1008580010BD164C2146002000F08EFA2378012B9B
:1008680004D0124B1A78124B1A70DDE7104B1B7824
:10087800002BF6D10F4B1868013018600A220E4978
:1008880000F070FCEDE704210C4800F0DBFAD0E73B
:1008980004210A4800F00EFAD5E70421064800F0C2
:1008A800B5FAD5E740020020ABAAAAAA3802002070
:1008B800390200203C0200208C0300209003002015
:1008C80008B50421022000F005FC0821022000F0F0
:1008D80001FC4FF48041022000F0FCFB002000F0F6
:1008E80043FA00F0D3F9024800F05AFA08BD00BFF5
:1008F8000038014008B5FFF7E3FFFFF755FFFFF7A2
:100908007DFF08BD38B5234C22460421224800F05B
:10091800CFFB247874B9214B1A78214B1B789A4263
:100928000ED100231F4A13701D4A13701E4B1B68FB
:10093800984738BD00220421174800F098FBF8E7D3
:10094800154D01221146284600F091FB0022022194
:10095800284600F08CFB072C11D8114B1B78134A42
:10096800D25C224102F00102114B53F82410114BC2
:1009780053F8240000F07BFB0134E4B2EBE70122DA
:100988000421054800F073FB054A137801331370FE
:10099800CFE700BF45020020000801404E020020BA
:1009A8004D0200204802002094030020500200203D
:1009B800941B0008B41B000838B51B4C22460421C0
:1009C8001A4800F075FB24785CB9184D0022012103
:1009D800284600F04CFB00220221284600F047FB85
:1009E80019E000220421114800F041FB104B0022BD
:1009F8001A70104B1B68984714E00122224102F03C
:100A080001020D4B53F824100C4B53F8240000F04E
:100A18002EFB0134E4B2072CEFD90122042103484C
:100A280000F025FB38BD00BF460200200008014049
:100A38004802002098030020941B0008B41B0008FB
:100A480070B51E4B1D781E4B1B781D441D4C22464D
:100A580004211D4800F02CFB247864B9EDB21A4E2D
:100A680000220121304600F002FB0022022130461C
:100A780000F0FDFA19E000220421134800F0F7FA0B
:100A8800124B00221A70124B1B68984714E045FA63
:100A980004F202F001020F4B53F824100E4B53F8E6
:100AA800240000F0E4FA0134E4B2072CEFD9012263
:100AB8000421054800F0DBFA70BD00BF4B0200209E
:100AC8004A02002047020020000801404802002096
:100AD8009C030020941B0008B41B000838B5564B33
:100AE8001B78072B40F2A280544B1B78022B37D07F
:100AF800032B68D0012B40F09C80514C22460421E6
:100B0800504800F0D5FA24785CB94E4D00220121F6
:100B1800284600F0ACFA00220221284600F0A7FA85
:100B280016E000220421474800F0A1FA434B0222B4
:100B38001A707EE03822224102F00102424B53F83B
:100B48002410424B53F8240000F091FA0134E4B227
:100B5800072CEFD9012204213A4800F088FA68E00E
:100B6800374C22460421374800F0A2FA24785CB9B1
:100B7800344D00220121284600F079FA0022022192
:100B8800284600F074FA16E0002204212D4800F0EF
:100B98006EFA2A4B03221A704BE00C22224102F013
:100BA8000102294B53F82410284B53F8240000F075
:100BB8005EFA0134E4B2072CEFD90122042121485E
:100BC80000F055FA35E01E4C224604211D4800F07D
:100BD8006FFA24785CB91B4D00220121284600F0E9
:100BE80046FA00220221284600F041FA16E00022C7
:100BF8000421144800F03BFA154B01221A7018E042
:100C08000122224102F001020F4B53F824100F4B2E
:100C180053F8240000F02BFA0134E4B2072CEFD982
:100C280001220421074800F022FA02E00133024AB7
:100C38001370002038BD00BF4C020020E8000020DF
:100C48004402002000080140941B0008B41B00085F
:100C58004902002008B50B4B1B7883B10A4B1B785F
:100C6800022B06D0032B07D0012B0AD1FFF74AFE2F
:100C780007E0FFF7A1FE04E0FFF7E2FE01E0FFF75F
:100C88002DFF08BD490200204802002038B5002485
:100C9800254608E0064800EB041000F09FF90543DC
:100CA800EDB20134E4B20A2CF4D9284638BD00BFAD
:100CB80038000020A0B110B404460B4B1B788BB948
:100CC800094A0120107004E0E05C084AD05401335E
:100CD800DBB28B42F8D3064B1970012010BC704769
:100CE800002070470020F9E7480200205002002049
:100CF8004E020020014B03EB00107047E01B000878
:100D080070B5002404B170BD26462046FFF7F2FFF7
:100D1800104B1860104D294600F0B4F90F4B1A5DBE
:100D28002B789A420BD00E4A002111550C4A925D3D
:100D3800052A09D0094A93550134E4B2E2E7084983
:100D48000A5D01320A55F1E7064A9355044A002123
:100D58009155EFE7A403002051030020540300201D
:100D680050030020A003002008B5FFF7C3FF00F0E0
:100D780035F9012008BD0000024B1B5C0B700120F7
:100D8800704700BFA003002010B5044C204600F0B7
:100D980025F904F1100000F021F910BDEC00002045
:100DA80010B5174C2060C36843F40053C360FFF7C5
:100DB800EBFF144A00231360D38093801372124A06
:100DC8001360D380938013722368DA6842F48052E8
:100DD800DA601A6922F400521A6141F64C529A609C
:100DE800252000F0E3F8252000F0C8F82368DA6829
:100DF80042F06C02DA601A6822F040021A6010BDF4
:100E080058030020680300205C030020034670B1EB
:100E180079B10A4A127A72B9084A1060D180012061
:100E28001072074909681B784B6090807047002052
:100E38007047002070470120704700BF68030020FA
:100E48005803002058B161B1084A127A5AB9074AC2
:100E58001060D18000239380012010727047002019
:100E68007047002070470120704700BF5C030020D6
:100E780008B5224B1A68136813F0200F1BD023F013
:100E8800200313601E4B1B7A012B00D008BD50684D
:100E98001B4A11689388C85401339BB29380D28847
:100EA800934208D1164B00221A60DA809A801A728F
:100EB800144B1B689847114B1A68136813F0400FBE
:100EC800E4D023F0400313600F498B88C9888B4214
:100ED80006D00D490868C05C506001338B80D5E7A7
:100EE800094B1B68002BD1D0074B00221A60DA800F
:100EF8009A801A72054B1B689847C7E75803002069
:100F08005C0300207403002068030020780300209D
:100F1800024A136843F002031360704710E000E0D0
:100F2800024A136843F001031360704710E000E0C1
:100F3800064B03FB00F30648A0FB03239B09013B78
:100F4800044A536000239360704700BF40548900EF
:100F5800D34D621010E000E018B1034A1060012080
:100F680070470020704700BF7C03002008B5024B83
:100F78001B6803B1984708BD7C030020EF2810D8F0
:100F880010B4094B1C68420900F01F03012000FA45
:100F980003F3403254F822100B4344F8223010BCBB
:100FA80070470020704700BF0C010020EF2810D8C0
:100FB80010B4094B1C68420900F01F03012000FA15
:100FC80003F3A03254F822100B4344F8223010BC2B
:100FD80070470020704700BF0C010020F0B4C168C2
:100FE8008668436853B9102E03D0202E01D0002400
:100FF80005E0102E05D00826002400E00024002378
:1010080003E008260124FAE70133072B10D8012250
:101018009A400568AA43F7D10D689F000F22BA408D
:1010280025EA020542683243BA402A430A60EBE7E0
:10103800082300E001330F2B13D801229A400568DA
:10104800AA43F7D1A3F108024E6895000F22AA40DF
:1010580026EA0206426887683A43AA4032434A6051
:10106800E8E70CB103680B610120F0BC7047012A66
:1010780003D02AB9416101207047016101207047FE
:101088000020704710B4C3681C7A027814420CD050
:1010980001220A701A7B03781A4203D00B7883F076
:1010A80001030B70012010BC704700220A70F1E7A1
:1010B800037AC9B20B420AD001231370037B194289
:1010C80003D0137883F001031370012070470023C5
:1010D8001370F3E701280DD018B1022813D00020AF
:1010E8007047104B5A690A435A615B690B4215D124
:1010F800002070470B4BDA690A43DA61DB690B425F
:101108000ED100207047074B9A690A439A619B6980
:101118000B4201D001207047002070470120704722
:101128000120704700100240014B1868704700BF4B
:1011380010010020931E222B10B50C4604D9002361
:101148001C460B70204610BD0A2A09D1002807DA70
:101158002D230B7001214042214400F005F8F1E7EE
:101168000021F9E7FFF7E6BFF0B58BB005460C465E
:101178006E461B4B03F1200C374618685968083334
:1011880003C763453E46F7D118681B7938603B7141
:10119800931E222B4FF0000304D923701C462046CF
:1011A8000BB0F0BD661EB5FBF2F002FB10550AAF9E
:1011B8003D4415F8285C591C06F8015F054668B9D6
:1011C800224660542344191B101B8142E7DD117825
:1011D800187802F8010B03F80119F4E70B46E2E767
:1011E800FC1B000830B5141E05469BB0184605DAEE
:1011F8008B234FF0FF302B601BB030BD4FF40273D0
:10120800ADF80C300CBF234604F1FF33029305936D
:101218004FF6FF7300910491ADF80E3002461E9B05
:101228006946284600F072F8431CBCBF8B232B602C
:10123800002CE1D00022009B1A70DDE707B500936F
:1012480013460A46014603480068FFF7CBFF03B080
:101258005DF804FB100100202DE9F0478E688246F6
:101268009E420C469046994637D88A8912F4906F68
:1012780031D00223256809696F1A656905EB4505B0
:1012880095FBF3F509F101033B449D4238BF1D4628
:10129800530530D5294600F035FB064650B90C23D6
:1012A8004FF0FF30CAF80030A38943F04003A38110
:1012B800BDE8F0873A46216900F0B4FAA38923F41F
:1012C800906343F08003A38126613E4426604E4626
:1012D8006561ED1BA5604E4500D94E463246414634
:1012E800206800F0AAFAA36800209B1BA36023686B
:1012F8001E442660DCE72A4600F05EFB064600280E
:10130800E2D12169504600F0B1FAC8E72DE9F04F63
:101318009DB003938B8980461D060C4616460FD553
:101328000B696BB9402100F0EDFA2060206128B903
:101338000C23C8F800304FF0FF30C7E0402363614A
:101348000023099320238DF8293030234FF0010B17
:101358008DF82A3037463D4615F8013B0BB1252B51
:101368003ED1B7EB060A0BD05346324621464046DB
:10137800FFF772FF013000F0A480099B53440993E2
:101388003B78002B00F09D8000234FF0FF32CDE921
:101398000523049307938DF853301A932F4605229B
:1013A80017F8011B4F4800F02FFA049BD0B9D90653
:1013B80044BF20228DF853201A0744BF2B228DF8F2
:1013C80053202A782A2A15D02F4600200A25079A62
:1013D800394611F8013B303B092B4DD9B8B10FE024
:1013E8002F46B8E73F4A3D46801A0BFA00F01843EB
:1013F8000490D3E7039A111D12680391002A01DBB8
:10140800079204E0524243F00203079204933B78A8
:101418002E2B0CD17B782A2B33D1039B02371A1D34
:101428001B680392002BB8BF4FF0FF3305932E4D76
:1014380003223978284600F0E7F938B14023401BE9
:1014480003FA00F0049B013703430493397806221A
:1014580026487E1C8DF8281000F0D6F9002838D0D0
:10146800234B13BB039B073323F007030833039372
:10147800099B4B4409936DE705FB023201200F4697
:10148800A6E700230A25194601370593384610F8C0
:10149800012B303A092A03D9002BC8D00591C6E799
:1014A80005FB012101230746F0E703AB0093224621
:1014B800104B04A94046AFF30080B0F1FF3F8146CE
:1014C800D6D1A3895B063FF536AF09981DB0BDE8B4
:1014D800F08F03AB00932246064B04A9404600F068
:1014E80081F8EAE7211C0008271C00082B1C0008CB
:1014F80000000000611200082DE9F04791461F46E0
:101508008A680B6906469342B8BF1346C9F800308B
:1015180091F843200C46DDF8208012B10133C9F858
:1015280000302368990642BFD9F800300233C9F861
:101538000030256815F0060507D104F1190AE3689B
:10154800D9F800209B1AAB4229DC94F84330226872
:10155800003318BF012392062ED404F14302394602
:101568003046C047013021D02368E56803F0060300
:10157800042B18BF0025D9F800204FF0000908BF38
:10158800AD1AA368226908BF25EAE5759342C4BF6E
:101598009B1AED181A344D451AD1002008E0012392
:1015A800524639463046C047013003D14FF0FF302C
:1015B800BDE8F0870135C2E73020E11881F8430023
:1015C8005A1C94F845102244023382F84310C4E7A9
:1015D8000123224639463046C0470130E6D009F19A
:1015E8000109D8E72DE9F04301F1430C0C46097EC7
:1015F80085B06E291746064698460C9A00F0B380C7
:1016080022D8632936D00AD8002900F0B980582991
:1016180000F0838004F1420584F8421032E0642926
:1016280001D06929F6D120681368050603F1040181
:101638002AD51B681160002B03DA2D225B4284F83F
:1016480043206F480A2239E0732900F09D8008D8AA
:101658006F2920D07029DDD1236843F0200323604F
:1016680003E0752917D07829D4D17823654884F800
:10167800453055E0136804F14205191D1B681160D7
:1016880084F8423001238CE01B6810F0400F116091
:1016980018BF1BB2CFE713682568181D106028060D
:1016A80001D51B6802E06806FBD51B886F2914BFAB
:1016B8000A2208225248002184F843106568002D48
:1016C800A560C0F29580216821F004012160002BFB
:1016D8003DD1002D40F08E806546082A0BD1236845
:1016E800DB0708D5236962689A42DEBF302305F814
:1016F800013C05F1FF35ACEB05032361CDF8008013
:101708003B4603AA21463046FFF7F6FE01304DD18D
:101718004FF0FF3005B0BDE8F083394884F8451034
:10172800136821681D1D1B6815600A060BD5CA07BA
:1017380044BF41F0200121601BB9226822F0200239
:1017480022601022B7E74D0648BF9BB2EFE7654617
:10175800B3FBF2F102FB1133C35C05F8013D0B4604
:101768000029F5D1B9E713682568181D616910606B
:1017780028061B6801D5196002E06A06FBD51980A6
:10178800002365462361B9E71368191D11601D68B8
:1017980062680021284600F037F808B1401B6060F5
:1017A80063682361002384F84330A7E723692A4646
:1017B80039463046C0470130AAD023689B0713D466
:1017C800E068039B9842B8BF1846A3E701234A463E
:1017D80039463046C04701309AD00135E368039A4C
:1017E8009B1AAB42F2DCEBE7002504F11909F5E797
:1017F800002BACD1037804F1420584F842306CE741
:10180800321C0008431C000810B5C9B202449042BB
:10181800034601D1002303E01C7801308C42F6D145
:10182800184610BD10B5431E0A44914200D110BDA0
:1018380011F8014B03F8014FF7E7884210B501EBA7
:10184800020307D8421E99420AD011F8014B02F848
:10185800014FF8E78342F5D98118D21AD34200D153
:1018680010BD13F8014D01F8014DF7E738B50546ED
:10187800002943D051F8043C0C1F002BB8BFE418D2
:1018880000F0D0F81E4A1368104633B9636014603C
:101898002846BDE8384000F0C6B8A3420BD92168F5
:1018A8006218934201BF1A685B685218226063602D
:1018B8000460EDE713465A680AB1A242FAD91968DA
:1018C8005818A0420BD12068014458188242196068
:1018D800DED110685268014419605A60D8E702D90D
:1018E8000C232B60D4E7206821188A4201BF1168B5
:1018F80052680918216062605C60C9E738BD00BFA2
:101908008003002070B5CD1C25F0030508350C2D8B
:1019180038BF0C25002D064601DBA94203D90C234C
:101928003360002070BD00F07DF8214A146821461C
:1019380091B9204C23681BB9304600F063F8206049
:101948002946304600F05EF8431C24D10C2330466B
:10195800336000F068F8E4E70B685B1B18D40B2BC6
:101968000FD90B60CC18CD50304600F05CF804F16C
:101978000B00231D20F00700C31AD3D05A42E250AF
:10198800D0E74B688C4216BF636013600C46EBE7E8
:101998000C464968CCE7C41C24F00304A04205D0D7
:1019A800211A304600F02EF80130CFD02560DBE751
:1019B8008003002084030020F8B5074614460E462D
:1019C80021B9BDE8F8401146FFF79CBF22B9FFF7DF
:1019D8004DFF25462846F8BD00F026F8A0420FD254
:1019E80021463846FFF78EFF05460028F2D03146DB
:1019F8002246FFF717FF31463846FFF737FFE9E77A
:101A08003546E7E738B50023054C05460846236008
:101A1800FEF7B0FC431C02D1236803B12B6038BD2C
:101A2800880300207047704751F8043C181F002BAA
:101A3800BCBF0B58C0187047537461636B20667243
:101A4800616D653A0A000000205230203D202025B3
:101A58003038580A00000000205231203D2020254F
:101A68003038580A00000000205232203D2020253E
:101A78003038580A00000000205233203D2020252D
:101A88003038580A0000000020523132203D20250D
:101A98003038580A00000000204C52203D202025F4
:101AA8003038580A00000000205043203D202025EF
:101AB8003038580A0000000020505352203D20259D
:101AC8003038580A000000004653522F4641523A17
:101AD8000A0000002043465352203D20202530387C
:101AE800580A00002048465352203D20202530380F
:101AF800580A00002044465352203D202025303803
:101B0800580A00002041465352203D2020253038F5
:101B1800580A0000204D4D464152203D20253038BE
:101B2800580A00002042464152203D2020253038E6
:101B3800580A00004D6973630A000000204C522FB8
:101B48004558435F52455455524E3D20253038582C
:101B58000A0000005B486172644661756C745D0A36
:101B6800000000005B4275734661756C745D0A0085
:101B78005B55736167654661756C745D0A000000AA
:101B8800250800081E0000000100000008000000F1
:101B9800100000002000000040000000800000004D
:101BA80000010000000800000010000000080140CB
:101BB80000080140000801400008014000080140F9
:101BC8000008014000080140000801405D0C0008C1
:101BD8000500000001000000008000000000000077
:101BE8001000000000080140090D00080500000071
:101BF800010000003031323334353637383961620C
:101C0800636465666768696A6B6C6D6E6F70717224
:101C1800737475767778797A00232D302B200068D5
:101C28006C4C0065666745464700303132333435C1
:101C3800363738394142434445460030313233342F
:0C1C480035363738396162636465660028
:101C540078563412800100200000000000000000CB
:101C640000000000010203040607080900A24A0458
:101C7400F01B000800000000881B000800000000A2
:101C8400D41B000800000000010000000100000057
:101C940000000000000801400200000001000000F4
:101CA40000000000000801400400000001000000E2
:101CB40000000000000801400800000001000000CE
:101CC40000000000000801401000000001000000B6
:101CD4000000000000080140200000000100000096
:101CE4000000000000080140400000000100000066
:101CF4000000000000080140800000000100000016
:101D04000000000000080140000100000100000084
:101D1400000000000008014000080000010000006D
:101D24000000000000080140001000000100000055
:101D3400000000000008014001FFFFFF0002000056
:101D44000300000008000000000801400004000037
:101D540000000000200000000008014000E000E056
:101D6400140100200000000000000000000000003A
:101D7400000000000000000000000000000000005F
:101D8400000000000000000000000000000000004F
:101D9400000000000000000000000000000000003F
:101DA400000000000000000000000000000000002F
:101DB400000000000000000000000000000000001F
:081DC400000000003254769883
:040000050800010DE1
:00000001FF
