:020000040800F2
:1000000000500020CD010008D1010008D3010008F4
:10001000E9010008EB0100080102000800000000EF
:1000200000000000000000000000000017020008AF
:1000300019020008000000001B020008250A000841
:1000400031020008310200083102000831020008C4
:1000500031020008310200083102000831020008B4
:1000600031020008310200083102000831020008A4
:100070003102000831020008310200083102000894
:100080003102000831020008310200083102000884
:100090003102000831020008310200083102000874
:1000A0003102000831020008310200083102000864
:1000B0003102000831020008310200083102000854
:1000C0003102000831020008310200083102000844
:1000D000310200083D090008310200083102000821
:1000E000310200083102000831020008000000005F
:1000F0000000000000000000000000000000000000
:1001000000000000000000005FF808F107B500F0F3
:10011000B1F8234A234B24498B4204D252F8040FEE
:1001200043F8040BF8E7214B214A0021934202D205
:1001300043F8041BFAE700F0A9F801A9684600F0AB
:1001400091F81C4B1C4C1E46E41AA4100025AC422E
:1001500004DD56F8253098470135F8E7174B184C61
:100160001E46E41AA4100025AC4204DD56F82530E2
:1001700098470135F8E79DE8030000F0A9F9114B15
:1001800006461D46104CE41AA410002C04DD013C68
:1001900055F824309847F8E7304600F05FF800BF84
:1001A000900B000800000020140100201401002022
:1001B0007C0200205C0200085C0200085C0200086F
:1001C0005C0200085C0200085C020008144800475A
:1001D000FEE71EF0040F0CBFEFF30880EFF3098079
:1001E0007146104A1047FEE7FEE71EF0040F0CBFF1
:1001F000EFF30880EFF3098071460B4A1047FEE7E2
:100200001EF0040F0CBFEFF30880EFF30980714676
:10021000064A1047FEE7FEE7FEE7FEE770470000EC
:100220000D010008E7010008FF01000815020008A1
:02023000FEE7E7
:10023400940B00080000002014010020940B000817
:100244000000000000000000140100207C020020D7
:080254000000000000000000A2
:10025C0008B500F017F8000001230360014B0B6098
:10026C00704700BF0000002008B500F01DF8024BDD
:10027C00024A9A6008BD00BF00ED00E000000008D3
:10028C0000F08CB8BFF34F8F0549064BCA6802F4D7
:10029C00E0621343CB60BFF34F8F00BFFDE700BF9D
:1002AC0000ED00E00400FA05384B82B01A6842F009
:1002BC0001021A605968364A0A405A601A6822F0DC
:1002CC00847222F480321A601A6822F480221A6036
:1002DC005A6822F4FE025A604FF41F029A60002200
:1002EC00009201921A6842F480321A601A6802F481
:1002FC0000320192009A01320092019A1AB9009AC6
:10030C00B2F5A06FF2D11A6812F4003218BF0122B4
:10031C000192019A012A05D01E4B4FF000629A609F
:10032C0002B070471C4A116841F01001116011684D
:10033C0021F003011160116841F0020111605A684B
:10034C005A605A685A605A6842F480625A605A6815
:10035C0022F47C125A605A6842F4E8125A601A6805
:10036C0042F080721A601968084A8901FBD55168FD
:10037C0021F003015160516841F0020151605A684B
:10038C0002F00C02082AFAD1C6E700BF00100240A6
:10039C000000FFF800ED00E000200240114A124B73
:1003AC00516801F00C01042901D0082901D00F4932
:1003BC000EE051685068C1F38341C00301F10201A2
:1003CC0002D55068800301D5094800E00748414335
:1003DC00196052680749C2F30312895C1A68CA4053
:1003EC001A607047001002401800002000127A00BA
:1003FC0000093D0008000020004870471C00002048
:10040C00014B01221A707047280100200C4B10B5CB
:10041C0000221A70FFF7F0FF044600F0D5FA022014
:10042C0000F0E2FA074800F0EFFA2168064B4A6840
:10043C001C6052089A6062685A600A7A1A7310BD7E
:10044C00280100200D040008180100200E4E80B574
:10045C0000F0C2FA37464FF000080C4C337803B961
:10046C00FEE7237B87F80080012B084DF6D16368EB
:10047C002BB923681B681B689847A36863606B687B
:10048C00013B6B60EAE700BF280100201801002047
:10049C0007B50A4A0DF107011388002001331380B8
:1004AC0000F0FEF99DF80730012B01BF044A1378C8
:1004BC000133137003B05DF804FB00BF2A01002068
:1004CC002901002008B50421022000F017FB0821A7
:1004DC00022000F013FB0021022000F00FFB00F0C3
:1004EC00E7F9002000F0C0F900F074F9FFF78EFF77
:1004FC00FFF7ACFF08BD00002DE9F041DFF8CC821E
:10050C0098F80060002E00F0AB809F4E3578022DDD
:10051C0041D0032D70D0012D40F034819B4C04212F
:10052C0022469B4800F0E5FA24780CB100225DE0ED
:10053C00984B994A1F4611781A78914203D11C7036
:10054C003470964B6CE02A462946914800F0C7FA65
:10055C00224602218E4800F0C2FADFF87482904ED7
:10056C003B7856F8241018F803208E4B224153F890
:10057C00240002F00102013400F0B1FA082C854D80
:10058C00EED101220421824800F0A9FA2B78013324
:10059C002B70BDE8F081844C042122467C4800F08D
:1005AC00A8FA247844B100220421794800F097FA83
:1005BC00002333707D4B33E022460121744800F058
:1005CC008EFA29462246724800F089FA744E754D0F
:1005DC00012747FA04F256F8241055F82400D2B239
:1005EC00013400F07CFA082CF3D101220421684874
:1005FC00BDE8F04100F073BA6D4B6E4C1F786E4B3A
:10060C002246042162481D7800F073FA24785CB10C
:10061C00002204215E4800F062FA00233370674B1D
:10062C001B68BDE8F041184722460121584800F0EC
:10063C0056FA22460221564800F051FA3D44594ED2
:10064C00574FEDB245FA04F257F8241056F824002F
:10065C0002F00102013400F042FA082CF2D1C4E796
:10066C00574A1378132B40F28B80564F3D78022D4E
:10067C002ED0032D58D0012D40F08480524C0421F3
:10068C002246434800F035FA247834B1324604212E
:10069C003F4800F024FA022328E0294622463C4831
:1006AC0000F01DFA22460221394800F018FA3C4E9F
:1006BC003C4D382747FA04F256F8241055F824001C
:1006CC0002F00102013400F00AFA082CF2D18CE796
:1006DC003D4C042122462E4800F00BFA247844B1FC
:1006EC00324604212A4800F0FAF903233B70BDE896
:1006FC00F08122460121264800F0F1F929462246D4
:10070C00234800F0ECF9264E264D0C2747FA04F24C
:10071C0056F8241055F8240002F00102013400F0C0
:10072C00DEF9082CF2D160E7274C04212246184848
:10073C0000F0DFF924784CB132460421144800F063
:10074C00CEF9012388F80030BDE8F0812246012162
:10075C000F4800F0C4F9224602210D4800F0BFF901
:10076C000F4E104D012747FA04F256F8241055F895
:10077C002400D2B2013400F0B2F9082CF3D134E7E2
:10078C0001331370BDE8F081310200202E010020EE
:10079C00000801402D0100203001002048020020FB
:1007AC00480B0008680B00082F0100204C020020A9
:1007BC002C010020300200203202002050020020C8
:1007CC0035020020400000203302002034020020BB
:1007DC003101002070B500252C46054E701900F033
:1007EC0039F910352043B02DC4B2F7D1204670BD75
:1007FC0044000020024B0C2202FB0030704700BF6B
:10080C00880B000838B50020FFF7F4FF114C124D8F
:10081C00016828602246406800F06BF92B689B68E1
:10082C00012B02BF237883F0010323700B4B21783B
:10083C001A788A420A4A12BF0020107801301070D0
:10084C001278052A04D1074A00201170044A10704E
:10085C00197038BD360200205802002038020020E2
:10086C00370200205402002030B585B0FFF7C2FFDC
:10087C0004460368002500934368684603930823E5
:10088C000195029300F0E6F8A168012902D0022933
:10089C0003D12946684600F015F9012005B030BD9A
:1008AC00024B1B5C01200B70704700BF54020020F0
:1008BC0010B51D4C88B022684FF0030CD3684FF470
:1008CC00806143F40053D3604FF400738DE808103B
:1008DC00164B08220491684600210292039305915D
:1008EC000692079300F0B6F804A800F0B3F823685A
:1008FC002520DA6842F48052DA601A6922F4005238
:10090C001A611A691A6141F64C529A6000F08CF81F
:10091C002368DA6842F00C02DA60DA6842F06002AE
:10092C00DA6008B010BD00BF0C01002000080140C7
:10093C00204B70B519681C460A6812F0400F17D08E
:10094C001D4B1868A0B10A689D6822F040020A602D
:10095C005A68AA4204D0805C013248605A6007E0B1
:10096C0000221A609A605A601A73144B1B689847DD
:10097C00226813689B061BD5136823F020031360B1
:10098C000F4B197B012913D1506893E8060088544A
:10099C005A68996801328A425A6009D1BDE87040A0
:1009AC0000221A609A605A601A73064B1B6818472B
:1009BC0070BD00BF0C0100206C0200203C02002026
:1009CC005C02002040020020024A136843F002033C
:1009DC001360704710E000E0024A136843F0010313
:1009EC001360704710E000E0054B002258434FF4B1
:1009FC007A73B0FBF3F0034B013858609A60704780
:100A0C004054890010E000E010B1024B1860012046
:100A1C00704700BF44020020024B1B6803B118470B
:100A2C00704700BF44020020EF280FD8084B420942
:100A3C001B6803EB8202D2F8001100F01F030120A7
:100A4C0000FA03F30B43C2F80031704700207047E3
:100A5C0010010020F0B5C568066800234FF0010EA8
:100A6C004FF00F0C0EFA03F2B2430BD19C002A6824
:100A7C000CFA04F122EA0102476881683943A1406B
:100A8C000A432A600133082BECD14FF0010E4FF0D2
:100A9C000F0C0EFA03F2B2430FD103F18042083A65
:100AAC00920069680CFA02F421EA04014768846830
:100ABC003C4304FA02F20A436A600133102BE8D17A
:100ACC000120F0BD0129C36802D102681A6102E05D
:100ADC0019B902685A610120704700207047012A39
:100AEC0001D1016101E012B9416101207047002080
:100AFC0070478368012019401170704701280ED08F
:100B0C0007D3022815D10C4B9A690A439A619B6949
:100B1C000AE0094B5A690A435A615B6904E0064BC7
:100B2C00DA690A43DA61DB69194214BF012000203B
:100B3C0070470020704700BF001002400800000002
:100B4C0010000000200000004000000080000000A9
:100B5C000001000000020000000400000008014039
:100B6C000008014000080140000801400008014055
:100B7C00000801400008014000080140008000000E
:080B8C00000801400100000017
:100B9400140100200000000000000000000000001C
:100BA400010203040607080900A24A040001002008
:100BB40000000000F40000200000000034000020C9
:100BC400000000009D040008140000000100000063
:100BD40001FFFFFF01000000010000000000000011
:100BE40000080140020000000100000000000000B5
:100BF40000080140040000000100000000000000A3
:100C0400000801400800000001000000000000008E
:100C14000008014010000000010000000000000076
:100C24000008014020000000010000000000000056
:100C34000008014040000000010000000000000026
:100C440000080140800000000100000000000000D6
:100C54000008014000010000010000000000000045
:100C64000008014000020000010000000000000034
:100C74000008014000040000010000000000000022
:100C84000008014005050008020000000100000002
:100C940011080008040000000100000000380140B1
:040CA40000E000E08C
:040000050800010DE1
:00000001FF
